{
  "_format": "hh-sol-artifact-1",
  "contractName": "SusuChainVault",
  "sourceName": "contracts/SusuChainVault.sol",
  "abi": [
    {
      "anonymous": false,
      "inputs": [
        {
          "indexed": true,
          "internalType": "address",
          "name": "user",
          "type": "address"
        },
        {
          "indexed": false,
          "internalType": "uint256",
          "name": "amount",
          "type": "uint256"
        },
        {
          "indexed": false,
          "internalType": "uint256",
          "name": "newBalance",
          "type": "uint256"
        }
      ],
      "name": "Deposited",
      "type": "event"
    },
    {
      "anonymous": false,
      "inputs": [
        {
          "indexed": true,
          "internalType": "address",
          "name": "user",
          "type": "address"
        },
        {
          "indexed": false,
          "internalType": "uint256",
          "name": "amount",
          "type": "uint256"
        }
      ],
      "name": "EmergencyWithdrawn",
      "type": "event"
    },
    {
      "anonymous": false,
      "inputs": [
        {
          "indexed": true,
          "internalType": "address",
          "name": "user",
          "type": "address"
        },
        {
          "indexed": false,
          "internalType": "uint256",
          "name": "targetAmount",
          "type": "uint256"
        }
      ],
      "name": "VaultCreated",
      "type": "event"
    },
    {
      "inputs": [
        {
          "internalType": "uint256",
          "name": "_targetAmount",
          "type": "uint256"
        }
      ],
      "name": "createVault",
      "outputs": [],
      "stateMutability": "nonpayable",
      "type": "function"
    },
    {
      "inputs": [],
      "name": "deposit",
      "outputs": [],
      "stateMutability": "payable",
      "type": "function"
    },
    {
      "inputs": [],
      "name": "emergencyWithdraw",
      "outputs": [],
      "stateMutability": "nonpayable",
      "type": "function"
    },
    {
      "inputs": [
        {
          "internalType": "address",
          "name": "",
          "type": "address"
        }
      ],
      "name": "vaults",
      "outputs": [
        {
          "internalType": "uint256",
          "name": "balance",
          "type": "uint256"
        },
        {
          "internalType": "uint256",
          "name": "targetAmount",
          "type": "uint256"
        },
        {
          "internalType": "bool",
          "name": "isLocked",
          "type": "bool"
        },
        {
          "internalType": "bool",
          "name": "emergencyWithdrawn",
          "type": "bool"
        }
      ],
      "stateMutability": "view",
      "type": "function"
    }
  ],
  "bytecode": "0x608060405234801561001057600080fd5b50610646806100206000396000f3fe60806040526004361061003f5760003560e01c80639abbdf4b14610044578063a622ee7c14610066578063d0e30db0146100d6578063db2e21bc146100de575b600080fd5b34801561005057600080fd5b5061006461005f3660046105a0565b6100f3565b005b34801561007257600080fd5b506100ae6100813660046105b9565b60006020819052908152604090208054600182015460029092015490919060ff8082169161010090041684565b6040805194855260208501939093529015158383015215156060830152519081900360800190f35b6100646102a7565b3480156100ea57600080fd5b5061006461042d565b600081116101545760405162461bcd60e51b8152602060048201526024808201527f54617267657420616d6f756e74206d75737420626520677265617465722074686044820152630616e20360e41b60648201526084015b60405180910390fd5b3360009081526020819052604090206002015460ff16156101ae5760405162461bcd60e51b81526020600482015260146024820152735661756c7420616c72656164792061637469766560601b604482015260640161014b565b336000908152602081905260409020541561020b5760405162461bcd60e51b815260206004820181905260248201527f4578697374696e672066756e6473206d7573742062652077697468647261776e604482015260640161014b565b60408051608081018252600080825260208083018581526001848601818152606086018581523380875286865295889020965187559251918601919091555160029094018054915161ffff1990921694151561ff00191694909417610100911515919091021790925591518381527fa510df27d6e51efd91d3f55722bad1f26bf924a63e5dcee07c2ab4c3d4992dcc910160405180910390a250565b600034116103055760405162461bcd60e51b815260206004820152602560248201527f4465706f73697420616d6f756e74206d75737420626520677265617465722074604482015264068616e20360dc1b606482015260840161014b565b3360009081526020819052604090206002015460ff166103595760405162461bcd60e51b815260206004820152600f60248201526e139bc81858dd1a5d99481d985d5b1d608a1b604482015260640161014b565b33600090815260208190526040902060020154610100900460ff16156103c15760405162461bcd60e51b815260206004820152601c60248201527f5661756c7420697320656d657267656e63792077697468647261776e00000000604482015260640161014b565b33600090815260208190526040812080543492906103e09084906105e9565b90915550503360008181526020818152604091829020548251348152918201527f73a19dd210f1a7f902193214c0ee91dd35ee5b4d920cba8d519eca65a7b488ca910160405180910390a2565b33600090815260208190526040902080546104815760405162461bcd60e51b81526020600482015260146024820152734e6f2066756e647320746f20776974686472617760601b604482015260640161014b565b600281015460ff166104c75760405162461bcd60e51b815260206004820152600f60248201526e139bc81858dd1a5d99481d985d5b1d608a1b604482015260640161014b565b8054600080835560028301805461ffff1916610100179055604051339083908381818185875af1925050503d806000811461051e576040519150601f19603f3d011682016040523d82523d6000602084013e610523565b606091505b50509050806105665760405162461bcd60e51b815260206004820152600f60248201526e151c985b9cd9995c8819985a5b1959608a1b604482015260640161014b565b60405182815233907f2e39961a70a10f4d46383948095ac2752b3ee642a7c76aa827410aaff08c2e519060200160405180910390a2505050565b6000602082840312156105b257600080fd5b5035919050565b6000602082840312156105cb57600080fd5b81356001600160a01b03811681146105e257600080fd5b9392505050565b8082018082111561060a57634e487b7160e01b600052601160045260246000fd5b9291505056fea2646970667358221220b97e24c799b7b8ede7fb5a2f759e9afdf55871babb4ce4ba2c061a00e898e88b64736f6c63430008140033",
  "linkReferences": {},
  "deployedLinkReferences": {}
}